{"contracts/Raffle.sol":{"Raffle":{"abi":[{"inputs":[{"internalType":"uint256","name":"entranceFee","type":"uint256"},{"internalType":"uint256","name":"interval","type":"uint256"},{"internalType":"address","name":"vrfCoordinatorV2","type":"address"},{"internalType":"bytes32","name":"gasLane","type":"bytes32"},{"internalType":"uint64","name":"subscriptionId","type":"uint64"},{"internalType":"uint32","name":"callbackGasLimit","type":"uint32"}],"stateMutability":"nonpayable","type":"constructor"},{"inputs":[],"name":"Raffle__RaffleNotOpen","type":"error"},{"inputs":[],"name":"Raffle__SendMoreToRaffle","type":"error"},{"inputs":[],"name":"Raffle__UpkeepNotNeeded","type":"error"},{"anonymous":false,"inputs":[{"indexed":true,"internalType":"address","name":"player","type":"address"}],"name":"RaffleEnter","type":"event"},{"inputs":[],"name":"NUM_WORDS","outputs":[{"internalType":"uint32","name":"","type":"uint32"}],"stateMutability":"view","type":"function"},{"inputs":[],"name":"REQUEST_CONFIRMATIONS","outputs":[{"internalType":"uint16","name":"","type":"uint16"}],"stateMutability":"view","type":"function"},{"inputs":[{"internalType":"bytes","name":"","type":"bytes"}],"name":"checkUpkeep","outputs":[{"internalType":"bool","name":"upkeepNeeded","type":"bool"},{"internalType":"bytes","name":"","type":"bytes"}],"stateMutability":"view","type":"function"},{"inputs":[],"name":"enterRaffle","outputs":[],"stateMutability":"payable","type":"function"},{"inputs":[],"name":"i_callbackGasLimit","outputs":[{"internalType":"uint32","name":"","type":"uint32"}],"stateMutability":"view","type":"function"},{"inputs":[],"name":"i_entranceFee","outputs":[{"internalType":"uint256","name":"","type":"uint256"}],"stateMutability":"view","type":"function"},{"inputs":[],"name":"i_gasLane","outputs":[{"internalType":"bytes32","name":"","type":"bytes32"}],"stateMutability":"view","type":"function"},{"inputs":[],"name":"i_interval","outputs":[{"internalType":"uint256","name":"","type":"uint256"}],"stateMutability":"view","type":"function"},{"inputs":[],"name":"i_subscriptionId","outputs":[{"internalType":"uint64","name":"","type":"uint64"}],"stateMutability":"view","type":"function"},{"inputs":[],"name":"i_vrfCoordinator","outputs":[{"internalType":"contract VRFCoordinatorV2Interface","name":"","type":"address"}],"stateMutability":"view","type":"function"},{"inputs":[{"internalType":"bytes","name":"","type":"bytes"}],"name":"performUpkeep","outputs":[],"stateMutability":"nonpayable","type":"function"},{"inputs":[],"name":"s_lastTimeStamp","outputs":[{"internalType":"uint256","name":"","type":"uint256"}],"stateMutability":"view","type":"function"},{"inputs":[{"internalType":"uint256","name":"","type":"uint256"}],"name":"s_players","outputs":[{"internalType":"address payable","name":"","type":"address"}],"stateMutability":"view","type":"function"},{"inputs":[],"name":"s_raffleState","outputs":[{"internalType":"enum Raffle.RaffleState","name":"","type":"uint8"}],"stateMutability":"view","type":"function"}],"evm":{"bytecode":{"linkReferences":{},"object":"60e06040523480156200001157600080fd5b50604051620010b7380380620010b7833981810160405281019062000037919062000155565b85608081815250508460a08181525050426002819055508373ffffffffffffffffffffffffffffffffffffffff1660c08173ffffffffffffffffffffffffffffffffffffffff1660601b815250508260038190555081600460006101000a81548167ffffffffffffffff021916908367ffffffffffffffff16021790555080600460086101000a81548163ffffffff021916908363ffffffff160217905550505050505050620002e4565b600081519050620000f38162000262565b92915050565b6000815190506200010a816200027c565b92915050565b600081519050620001218162000296565b92915050565b6000815190506200013881620002b0565b92915050565b6000815190506200014f81620002ca565b92915050565b60008060008060008060c087890312156200017557620001746200025d565b5b60006200018589828a0162000110565b96505060206200019889828a0162000110565b9550506040620001ab89828a01620000e2565b9450506060620001be89828a01620000f9565b9350506080620001d189828a016200013e565b92505060a0620001e489828a0162000127565b9150509295509295509295565b6000620001fe826200020f565b9050919050565b6000819050919050565b600073ffffffffffffffffffffffffffffffffffffffff82169050919050565b6000819050919050565b600063ffffffff82169050919050565b600067ffffffffffffffff82169050919050565b600080fd5b6200026d81620001f1565b81146200027957600080fd5b50565b620002878162000205565b81146200029357600080fd5b50565b620002a1816200022f565b8114620002ad57600080fd5b50565b620002bb8162000239565b8114620002c757600080fd5b50565b620002d58162000249565b8114620002e157600080fd5b50565b60805160a05160c05160601c610d926200032560003960006106ce01526000818161055501526105b901526000818161034001526106650152610d926000f3fe6080604052600436106100dd5760003560e01c806372cf6e341161007f578063ae771f6b11610059578063ae771f6b14610280578063aebc4550146102bd578063cc45483f146102e8578063d757d02714610313576100dd565b806372cf6e34146101ff5780637ea3e6c11461022a5780638e879c8a14610255576100dd565b8063470cdf97116100bb578063470cdf971461014057806367f082b01461016b5780636919207d146101965780636e04ff0d146101c1576100dd565b80632cfcc539146100e257806334854043146100ec5780634585e33b14610117575b600080fd5b6100ea61033e565b005b3480156100f857600080fd5b506101016104ab565b60405161010e9190610a2c565b60405180910390f35b34801561012357600080fd5b5061013e600480360381019061013991906107f2565b6104b1565b005b34801561014c57600080fd5b50610155610534565b6040516101629190610a62565b60405180910390f35b34801561017757600080fd5b5061018061054e565b60405161018d9190610a11565b60405180910390f35b3480156101a257600080fd5b506101ab610553565b6040516101b89190610a2c565b60405180910390f35b3480156101cd57600080fd5b506101e860048036038101906101e3919061083f565b610577565b6040516101f6929190610990565b60405180910390f35b34801561020b57600080fd5b5061021461065e565b6040516102219190610a47565b60405180910390f35b34801561023657600080fd5b5061023f610663565b60405161024c9190610a2c565b60405180910390f35b34801561026157600080fd5b5061026a610687565b60405161027791906109c0565b60405180910390f35b34801561028c57600080fd5b506102a760048036038101906102a29190610888565b61068d565b6040516102b49190610975565b60405180910390f35b3480156102c957600080fd5b506102d26106cc565b6040516102df91906109db565b60405180910390f35b3480156102f457600080fd5b506102fd6106f0565b60405161030a91906109f6565b60405180910390f35b34801561031f57600080fd5b50610328610701565b6040516103359190610a47565b60405180910390f35b7f0000000000000000000000000000000000000000000000000000000000000000341015610398576040517f129d0dee00000000000000000000000000000000000000000000000000000000815260040160405180910390fd5b600060018111156103ac576103ab610ca4565b5b60008054906101000a900460ff1660018111156103cc576103cb610ca4565b5b14610403576040517fd24a271400000000000000000000000000000000000000000000000000000000815260040160405180910390fd5b6001339080600181540180825580915050600190039060005260206000200160009091909190916101000a81548173ffffffffffffffffffffffffffffffffffffffff021916908373ffffffffffffffffffffffffffffffffffffffff1602179055503373ffffffffffffffffffffffffffffffffffffffff167f0805e1d667bddb8a95f0f09880cf94f403fb596ce79928d9f29b74203ba284d460405160405180910390a2565b60025481565b60006104cb60405180602001604052806000815250610577565b50905080610505576040517f8e4bc81700000000000000000000000000000000000000000000000000000000815260040160405180910390fd5b60016000806101000a81548160ff0219169083600181111561052a57610529610ca4565b5b0217905550505050565b600460009054906101000a900467ffffffffffffffff1681565b600381565b7f000000000000000000000000000000000000000000000000000000000000000081565b6000606060008060009054906101000a900460ff16600181111561059e5761059d610ca4565b5b600060018111156105b2576105b1610ca4565b5b14905060007f0000000000000000000000000000000000000000000000000000000000000000600254426105e69190610aef565b119050600080471190506000806001805490501190508280156106065750835b801561060f5750815b80156106185750805b9550856040518060400160405280600381526020017f30783000000000000000000000000000000000000000000000000000000000008152509550955050505050915091565b600181565b7f000000000000000000000000000000000000000000000000000000000000000081565b60035481565b6001818154811061069d57600080fd5b906000526020600020016000915054906101000a900473ffffffffffffffffffffffffffffffffffffffff1681565b7f000000000000000000000000000000000000000000000000000000000000000081565b60008054906101000a900460ff1681565b600460089054906101000a900463ffffffff1681565b600061072a61072584610aa2565b610a7d565b90508281526020810184848401111561074657610745610d11565b5b610751848285610c02565b509392505050565b60008083601f84011261076f5761076e610d07565b5b8235905067ffffffffffffffff81111561078c5761078b610d02565b5b6020830191508360018202830111156107a8576107a7610d0c565b5b9250929050565b600082601f8301126107c4576107c3610d07565b5b81356107d4848260208601610717565b91505092915050565b6000813590506107ec81610d45565b92915050565b6000806020838503121561080957610808610d1b565b5b600083013567ffffffffffffffff81111561082757610826610d16565b5b61083385828601610759565b92509250509250929050565b60006020828403121561085557610854610d1b565b5b600082013567ffffffffffffffff81111561087357610872610d16565b5b61087f848285016107af565b91505092915050565b60006020828403121561089e5761089d610d1b565b5b60006108ac848285016107dd565b91505092915050565b6108be81610b23565b82525050565b6108cd81610b35565b82525050565b6108dc81610b41565b82525050565b60006108ed82610ad3565b6108f78185610ade565b9350610907818560208601610c11565b61091081610d20565b840191505092915050565b61092481610bba565b82525050565b61093381610bcc565b82525050565b61094281610b5e565b82525050565b61095181610b8c565b82525050565b61096081610b96565b82525050565b61096f81610ba6565b82525050565b600060208201905061098a60008301846108b5565b92915050565b60006040820190506109a560008301856108c4565b81810360208301526109b781846108e2565b90509392505050565b60006020820190506109d560008301846108d3565b92915050565b60006020820190506109f0600083018461091b565b92915050565b6000602082019050610a0b600083018461092a565b92915050565b6000602082019050610a266000830184610939565b92915050565b6000602082019050610a416000830184610948565b92915050565b6000602082019050610a5c6000830184610957565b92915050565b6000602082019050610a776000830184610966565b92915050565b6000610a87610a98565b9050610a938282610c44565b919050565b6000604051905090565b600067ffffffffffffffff821115610abd57610abc610cd3565b5b610ac682610d20565b9050602081019050919050565b600081519050919050565b600082825260208201905092915050565b6000610afa82610b8c565b9150610b0583610b8c565b925082821015610b1857610b17610c75565b5b828203905092915050565b6000610b2e82610b6c565b9050919050565b60008115159050919050565b6000819050919050565b6000819050610b5982610d31565b919050565b600061ffff82169050919050565b600073ffffffffffffffffffffffffffffffffffffffff82169050919050565b6000819050919050565b600063ffffffff82169050919050565b600067ffffffffffffffff82169050919050565b6000610bc582610bde565b9050919050565b6000610bd782610b4b565b9050919050565b6000610be982610bf0565b9050919050565b6000610bfb82610b6c565b9050919050565b82818337600083830152505050565b60005b83811015610c2f578082015181840152602081019050610c14565b83811115610c3e576000848401525b50505050565b610c4d82610d20565b810181811067ffffffffffffffff82111715610c6c57610c6b610cd3565b5b80604052505050565b7f4e487b7100000000000000000000000000000000000000000000000000000000600052601160045260246000fd5b7f4e487b7100000000000000000000000000000000000000000000000000000000600052602160045260246000fd5b7f4e487b7100000000000000000000000000000000000000000000000000000000600052604160045260246000fd5b600080fd5b600080fd5b600080fd5b600080fd5b600080fd5b600080fd5b6000601f19601f8301169050919050565b60028110610d4257610d41610ca4565b5b50565b610d4e81610b8c565b8114610d5957600080fd5b5056fea26469706673582212205441cd3c581b05f5115043153def416274b3ee061f7fd9d217d5c5cac2765a3f64736f6c63430008070033","opcodes":"PUSH1 0xE0 PUSH1 0x40 MSTORE CALLVALUE DUP1 ISZERO PUSH3 0x11 JUMPI PUSH1 0x0 DUP1 REVERT JUMPDEST POP PUSH1 0x40 MLOAD PUSH3 0x10B7 CODESIZE SUB DUP1 PUSH3 0x10B7 DUP4 CODECOPY DUP2 DUP2 ADD PUSH1 0x40 MSTORE DUP2 ADD SWAP1 PUSH3 0x37 SWAP2 SWAP1 PUSH3 0x155 JUMP JUMPDEST DUP6 PUSH1 0x80 DUP2 DUP2 MSTORE POP POP DUP5 PUSH1 0xA0 DUP2 DUP2 MSTORE POP POP TIMESTAMP PUSH1 0x2 DUP2 SWAP1 SSTORE POP DUP4 PUSH20 0xFFFFFFFFFFFFFFFFFFFFFFFFFFFFFFFFFFFFFFFF AND PUSH1 0xC0 DUP2 PUSH20 0xFFFFFFFFFFFFFFFFFFFFFFFFFFFFFFFFFFFFFFFF AND PUSH1 0x60 SHL DUP2 MSTORE POP POP DUP3 PUSH1 0x3 DUP2 SWAP1 SSTORE POP DUP2 PUSH1 0x4 PUSH1 0x0 PUSH2 0x100 EXP DUP2 SLOAD DUP2 PUSH8 0xFFFFFFFFFFFFFFFF MUL NOT AND SWAP1 DUP4 PUSH8 0xFFFFFFFFFFFFFFFF AND MUL OR SWAP1 SSTORE POP DUP1 PUSH1 0x4 PUSH1 0x8 PUSH2 0x100 EXP DUP2 SLOAD DUP2 PUSH4 0xFFFFFFFF MUL NOT AND SWAP1 DUP4 PUSH4 0xFFFFFFFF AND MUL OR SWAP1 SSTORE POP POP POP POP POP POP POP PUSH3 0x2E4 JUMP JUMPDEST PUSH1 0x0 DUP2 MLOAD SWAP1 POP PUSH3 0xF3 DUP2 PUSH3 0x262 JUMP JUMPDEST SWAP3 SWAP2 POP POP JUMP JUMPDEST PUSH1 0x0 DUP2 MLOAD SWAP1 POP PUSH3 0x10A DUP2 PUSH3 0x27C JUMP JUMPDEST SWAP3 SWAP2 POP POP JUMP JUMPDEST PUSH1 0x0 DUP2 MLOAD SWAP1 POP PUSH3 0x121 DUP2 PUSH3 0x296 JUMP JUMPDEST SWAP3 SWAP2 POP POP JUMP JUMPDEST PUSH1 0x0 DUP2 MLOAD SWAP1 POP PUSH3 0x138 DUP2 PUSH3 0x2B0 JUMP JUMPDEST SWAP3 SWAP2 POP POP JUMP JUMPDEST PUSH1 0x0 DUP2 MLOAD SWAP1 POP PUSH3 0x14F DUP2 PUSH3 0x2CA JUMP JUMPDEST SWAP3 SWAP2 POP POP JUMP JUMPDEST PUSH1 0x0 DUP1 PUSH1 0x0 DUP1 PUSH1 0x0 DUP1 PUSH1 0xC0 DUP8 DUP10 SUB SLT ISZERO PUSH3 0x175 JUMPI PUSH3 0x174 PUSH3 0x25D JUMP JUMPDEST JUMPDEST PUSH1 0x0 PUSH3 0x185 DUP10 DUP3 DUP11 ADD PUSH3 0x110 JUMP JUMPDEST SWAP7 POP POP PUSH1 0x20 PUSH3 0x198 DUP10 DUP3 DUP11 ADD PUSH3 0x110 JUMP JUMPDEST SWAP6 POP POP PUSH1 0x40 PUSH3 0x1AB DUP10 DUP3 DUP11 ADD PUSH3 0xE2 JUMP JUMPDEST SWAP5 POP POP PUSH1 0x60 PUSH3 0x1BE DUP10 DUP3 DUP11 ADD PUSH3 0xF9 JUMP JUMPDEST SWAP4 POP POP PUSH1 0x80 PUSH3 0x1D1 DUP10 DUP3 DUP11 ADD PUSH3 0x13E JUMP JUMPDEST SWAP3 POP POP PUSH1 0xA0 PUSH3 0x1E4 DUP10 DUP3 DUP11 ADD PUSH3 0x127 JUMP JUMPDEST SWAP2 POP POP SWAP3 SWAP6 POP SWAP3 SWAP6 POP SWAP3 SWAP6 JUMP JUMPDEST PUSH1 0x0 PUSH3 0x1FE DUP3 PUSH3 0x20F JUMP JUMPDEST SWAP1 POP SWAP2 SWAP1 POP JUMP JUMPDEST PUSH1 0x0 DUP2 SWAP1 POP SWAP2 SWAP1 POP JUMP JUMPDEST PUSH1 0x0 PUSH20 0xFFFFFFFFFFFFFFFFFFFFFFFFFFFFFFFFFFFFFFFF DUP3 AND SWAP1 POP SWAP2 SWAP1 POP JUMP JUMPDEST PUSH1 0x0 DUP2 SWAP1 POP SWAP2 SWAP1 POP JUMP JUMPDEST PUSH1 0x0 PUSH4 0xFFFFFFFF DUP3 AND SWAP1 POP SWAP2 SWAP1 POP JUMP JUMPDEST PUSH1 0x0 PUSH8 0xFFFFFFFFFFFFFFFF DUP3 AND SWAP1 POP SWAP2 SWAP1 POP JUMP JUMPDEST PUSH1 0x0 DUP1 REVERT JUMPDEST PUSH3 0x26D DUP2 PUSH3 0x1F1 JUMP JUMPDEST DUP2 EQ PUSH3 0x279 JUMPI PUSH1 0x0 DUP1 REVERT JUMPDEST POP JUMP JUMPDEST PUSH3 0x287 DUP2 PUSH3 0x205 JUMP JUMPDEST DUP2 EQ PUSH3 0x293 JUMPI PUSH1 0x0 DUP1 REVERT JUMPDEST POP JUMP JUMPDEST PUSH3 0x2A1 DUP2 PUSH3 0x22F JUMP JUMPDEST DUP2 EQ PUSH3 0x2AD JUMPI PUSH1 0x0 DUP1 REVERT JUMPDEST POP JUMP JUMPDEST PUSH3 0x2BB DUP2 PUSH3 0x239 JUMP JUMPDEST DUP2 EQ PUSH3 0x2C7 JUMPI PUSH1 0x0 DUP1 REVERT JUMPDEST POP JUMP JUMPDEST PUSH3 0x2D5 DUP2 PUSH3 0x249 JUMP JUMPDEST DUP2 EQ PUSH3 0x2E1 JUMPI PUSH1 0x0 DUP1 REVERT JUMPDEST POP JUMP JUMPDEST PUSH1 0x80 MLOAD PUSH1 0xA0 MLOAD PUSH1 0xC0 MLOAD PUSH1 0x60 SHR PUSH2 0xD92 PUSH3 0x325 PUSH1 0x0 CODECOPY PUSH1 0x0 PUSH2 0x6CE ADD MSTORE PUSH1 0x0 DUP2 DUP2 PUSH2 0x555 ADD MSTORE PUSH2 0x5B9 ADD MSTORE PUSH1 0x0 DUP2 DUP2 PUSH2 0x340 ADD MSTORE PUSH2 0x665 ADD MSTORE PUSH2 0xD92 PUSH1 0x0 RETURN INVALID PUSH1 0x80 PUSH1 0x40 MSTORE PUSH1 0x4 CALLDATASIZE LT PUSH2 0xDD JUMPI PUSH1 0x0 CALLDATALOAD PUSH1 0xE0 SHR DUP1 PUSH4 0x72CF6E34 GT PUSH2 0x7F JUMPI DUP1 PUSH4 0xAE771F6B GT PUSH2 0x59 JUMPI DUP1 PUSH4 0xAE771F6B EQ PUSH2 0x280 JUMPI DUP1 PUSH4 0xAEBC4550 EQ PUSH2 0x2BD JUMPI DUP1 PUSH4 0xCC45483F EQ PUSH2 0x2E8 JUMPI DUP1 PUSH4 0xD757D027 EQ PUSH2 0x313 JUMPI PUSH2 0xDD JUMP JUMPDEST DUP1 PUSH4 0x72CF6E34 EQ PUSH2 0x1FF JUMPI DUP1 PUSH4 0x7EA3E6C1 EQ PUSH2 0x22A JUMPI DUP1 PUSH4 0x8E879C8A EQ PUSH2 0x255 JUMPI PUSH2 0xDD JUMP JUMPDEST DUP1 PUSH4 0x470CDF97 GT PUSH2 0xBB JUMPI DUP1 PUSH4 0x470CDF97 EQ PUSH2 0x140 JUMPI DUP1 PUSH4 0x67F082B0 EQ PUSH2 0x16B JUMPI DUP1 PUSH4 0x6919207D EQ PUSH2 0x196 JUMPI DUP1 PUSH4 0x6E04FF0D EQ PUSH2 0x1C1 JUMPI PUSH2 0xDD JUMP JUMPDEST DUP1 PUSH4 0x2CFCC539 EQ PUSH2 0xE2 JUMPI DUP1 PUSH4 0x34854043 EQ PUSH2 0xEC JUMPI DUP1 PUSH4 0x4585E33B EQ PUSH2 0x117 JUMPI JUMPDEST PUSH1 0x0 DUP1 REVERT JUMPDEST PUSH2 0xEA PUSH2 0x33E JUMP JUMPDEST STOP JUMPDEST CALLVALUE DUP1 ISZERO PUSH2 0xF8 JUMPI PUSH1 0x0 DUP1 REVERT JUMPDEST POP PUSH2 0x101 PUSH2 0x4AB JUMP JUMPDEST PUSH1 0x40 MLOAD PUSH2 0x10E SWAP2 SWAP1 PUSH2 0xA2C JUMP JUMPDEST PUSH1 0x40 MLOAD DUP1 SWAP2 SUB SWAP1 RETURN JUMPDEST CALLVALUE DUP1 ISZERO PUSH2 0x123 JUMPI PUSH1 0x0 DUP1 REVERT JUMPDEST POP PUSH2 0x13E PUSH1 0x4 DUP1 CALLDATASIZE SUB DUP2 ADD SWAP1 PUSH2 0x139 SWAP2 SWAP1 PUSH2 0x7F2 JUMP JUMPDEST PUSH2 0x4B1 JUMP JUMPDEST STOP JUMPDEST CALLVALUE DUP1 ISZERO PUSH2 0x14C JUMPI PUSH1 0x0 DUP1 REVERT JUMPDEST POP PUSH2 0x155 PUSH2 0x534 JUMP JUMPDEST PUSH1 0x40 MLOAD PUSH2 0x162 SWAP2 SWAP1 PUSH2 0xA62 JUMP JUMPDEST PUSH1 0x40 MLOAD DUP1 SWAP2 SUB SWAP1 RETURN JUMPDEST CALLVALUE DUP1 ISZERO PUSH2 0x177 JUMPI PUSH1 0x0 DUP1 REVERT JUMPDEST POP PUSH2 0x180 PUSH2 0x54E JUMP JUMPDEST PUSH1 0x40 MLOAD PUSH2 0x18D SWAP2 SWAP1 PUSH2 0xA11 JUMP JUMPDEST PUSH1 0x40 MLOAD DUP1 SWAP2 SUB SWAP1 RETURN JUMPDEST CALLVALUE DUP1 ISZERO PUSH2 0x1A2 JUMPI PUSH1 0x0 DUP1 REVERT JUMPDEST POP PUSH2 0x1AB PUSH2 0x553 JUMP JUMPDEST PUSH1 0x40 MLOAD PUSH2 0x1B8 SWAP2 SWAP1 PUSH2 0xA2C JUMP JUMPDEST PUSH1 0x40 MLOAD DUP1 SWAP2 SUB SWAP1 RETURN JUMPDEST CALLVALUE DUP1 ISZERO PUSH2 0x1CD JUMPI PUSH1 0x0 DUP1 REVERT JUMPDEST POP PUSH2 0x1E8 PUSH1 0x4 DUP1 CALLDATASIZE SUB DUP2 ADD SWAP1 PUSH2 0x1E3 SWAP2 SWAP1 PUSH2 0x83F JUMP JUMPDEST PUSH2 0x577 JUMP JUMPDEST PUSH1 0x40 MLOAD PUSH2 0x1F6 SWAP3 SWAP2 SWAP1 PUSH2 0x990 JUMP JUMPDEST PUSH1 0x40 MLOAD DUP1 SWAP2 SUB SWAP1 RETURN JUMPDEST CALLVALUE DUP1 ISZERO PUSH2 0x20B JUMPI PUSH1 0x0 DUP1 REVERT JUMPDEST POP PUSH2 0x214 PUSH2 0x65E JUMP JUMPDEST PUSH1 0x40 MLOAD PUSH2 0x221 SWAP2 SWAP1 PUSH2 0xA47 JUMP JUMPDEST PUSH1 0x40 MLOAD DUP1 SWAP2 SUB SWAP1 RETURN JUMPDEST CALLVALUE DUP1 ISZERO PUSH2 0x236 JUMPI PUSH1 0x0 DUP1 REVERT JUMPDEST POP PUSH2 0x23F PUSH2 0x663 JUMP JUMPDEST PUSH1 0x40 MLOAD PUSH2 0x24C SWAP2 SWAP1 PUSH2 0xA2C JUMP JUMPDEST PUSH1 0x40 MLOAD DUP1 SWAP2 SUB SWAP1 RETURN JUMPDEST CALLVALUE DUP1 ISZERO PUSH2 0x261 JUMPI PUSH1 0x0 DUP1 REVERT JUMPDEST POP PUSH2 0x26A PUSH2 0x687 JUMP JUMPDEST PUSH1 0x40 MLOAD PUSH2 0x277 SWAP2 SWAP1 PUSH2 0x9C0 JUMP JUMPDEST PUSH1 0x40 MLOAD DUP1 SWAP2 SUB SWAP1 RETURN JUMPDEST CALLVALUE DUP1 ISZERO PUSH2 0x28C JUMPI PUSH1 0x0 DUP1 REVERT JUMPDEST POP PUSH2 0x2A7 PUSH1 0x4 DUP1 CALLDATASIZE SUB DUP2 ADD SWAP1 PUSH2 0x2A2 SWAP2 SWAP1 PUSH2 0x888 JUMP JUMPDEST PUSH2 0x68D JUMP JUMPDEST PUSH1 0x40 MLOAD PUSH2 0x2B4 SWAP2 SWAP1 PUSH2 0x975 JUMP JUMPDEST PUSH1 0x40 MLOAD DUP1 SWAP2 SUB SWAP1 RETURN JUMPDEST CALLVALUE DUP1 ISZERO PUSH2 0x2C9 JUMPI PUSH1 0x0 DUP1 REVERT JUMPDEST POP PUSH2 0x2D2 PUSH2 0x6CC JUMP JUMPDEST PUSH1 0x40 MLOAD PUSH2 0x2DF SWAP2 SWAP1 PUSH2 0x9DB JUMP JUMPDEST PUSH1 0x40 MLOAD DUP1 SWAP2 SUB SWAP1 RETURN JUMPDEST CALLVALUE DUP1 ISZERO PUSH2 0x2F4 JUMPI PUSH1 0x0 DUP1 REVERT JUMPDEST POP PUSH2 0x2FD PUSH2 0x6F0 JUMP JUMPDEST PUSH1 0x40 MLOAD PUSH2 0x30A SWAP2 SWAP1 PUSH2 0x9F6 JUMP JUMPDEST PUSH1 0x40 MLOAD DUP1 SWAP2 SUB SWAP1 RETURN JUMPDEST CALLVALUE DUP1 ISZERO PUSH2 0x31F JUMPI PUSH1 0x0 DUP1 REVERT JUMPDEST POP PUSH2 0x328 PUSH2 0x701 JUMP JUMPDEST PUSH1 0x40 MLOAD PUSH2 0x335 SWAP2 SWAP1 PUSH2 0xA47 JUMP JUMPDEST PUSH1 0x40 MLOAD DUP1 SWAP2 SUB SWAP1 RETURN JUMPDEST PUSH32 0x0 CALLVALUE LT ISZERO PUSH2 0x398 JUMPI PUSH1 0x40 MLOAD PUSH32 0x129D0DEE00000000000000000000000000000000000000000000000000000000 DUP2 MSTORE PUSH1 0x4 ADD PUSH1 0x40 MLOAD DUP1 SWAP2 SUB SWAP1 REVERT JUMPDEST PUSH1 0x0 PUSH1 0x1 DUP2 GT ISZERO PUSH2 0x3AC JUMPI PUSH2 0x3AB PUSH2 0xCA4 JUMP JUMPDEST JUMPDEST PUSH1 0x0 DUP1 SLOAD SWAP1 PUSH2 0x100 EXP SWAP1 DIV PUSH1 0xFF AND PUSH1 0x1 DUP2 GT ISZERO PUSH2 0x3CC JUMPI PUSH2 0x3CB PUSH2 0xCA4 JUMP JUMPDEST JUMPDEST EQ PUSH2 0x403 JUMPI PUSH1 0x40 MLOAD PUSH32 0xD24A271400000000000000000000000000000000000000000000000000000000 DUP2 MSTORE PUSH1 0x4 ADD PUSH1 0x40 MLOAD DUP1 SWAP2 SUB SWAP1 REVERT JUMPDEST PUSH1 0x1 CALLER SWAP1 DUP1 PUSH1 0x1 DUP2 SLOAD ADD DUP1 DUP3 SSTORE DUP1 SWAP2 POP POP PUSH1 0x1 SWAP1 SUB SWAP1 PUSH1 0x0 MSTORE PUSH1 0x20 PUSH1 0x0 KECCAK256 ADD PUSH1 0x0 SWAP1 SWAP2 SWAP1 SWAP2 SWAP1 SWAP2 PUSH2 0x100 EXP DUP2 SLOAD DUP2 PUSH20 0xFFFFFFFFFFFFFFFFFFFFFFFFFFFFFFFFFFFFFFFF MUL NOT AND SWAP1 DUP4 PUSH20 0xFFFFFFFFFFFFFFFFFFFFFFFFFFFFFFFFFFFFFFFF AND MUL OR SWAP1 SSTORE POP CALLER PUSH20 0xFFFFFFFFFFFFFFFFFFFFFFFFFFFFFFFFFFFFFFFF AND PUSH32 0x805E1D667BDDB8A95F0F09880CF94F403FB596CE79928D9F29B74203BA284D4 PUSH1 0x40 MLOAD PUSH1 0x40 MLOAD DUP1 SWAP2 SUB SWAP1 LOG2 JUMP JUMPDEST PUSH1 0x2 SLOAD DUP2 JUMP JUMPDEST PUSH1 0x0 PUSH2 0x4CB PUSH1 0x40 MLOAD DUP1 PUSH1 0x20 ADD PUSH1 0x40 MSTORE DUP1 PUSH1 0x0 DUP2 MSTORE POP PUSH2 0x577 JUMP JUMPDEST POP SWAP1 POP DUP1 PUSH2 0x505 JUMPI PUSH1 0x40 MLOAD PUSH32 0x8E4BC81700000000000000000000000000000000000000000000000000000000 DUP2 MSTORE PUSH1 0x4 ADD PUSH1 0x40 MLOAD DUP1 SWAP2 SUB SWAP1 REVERT JUMPDEST PUSH1 0x1 PUSH1 0x0 DUP1 PUSH2 0x100 EXP DUP2 SLOAD DUP2 PUSH1 0xFF MUL NOT AND SWAP1 DUP4 PUSH1 0x1 DUP2 GT ISZERO PUSH2 0x52A JUMPI PUSH2 0x529 PUSH2 0xCA4 JUMP JUMPDEST JUMPDEST MUL OR SWAP1 SSTORE POP POP POP POP JUMP JUMPDEST PUSH1 0x4 PUSH1 0x0 SWAP1 SLOAD SWAP1 PUSH2 0x100 EXP SWAP1 DIV PUSH8 0xFFFFFFFFFFFFFFFF AND DUP2 JUMP JUMPDEST PUSH1 0x3 DUP2 JUMP JUMPDEST PUSH32 0x0 DUP2 JUMP JUMPDEST PUSH1 0x0 PUSH1 0x60 PUSH1 0x0 DUP1 PUSH1 0x0 SWAP1 SLOAD SWAP1 PUSH2 0x100 EXP SWAP1 DIV PUSH1 0xFF AND PUSH1 0x1 DUP2 GT ISZERO PUSH2 0x59E JUMPI PUSH2 0x59D PUSH2 0xCA4 JUMP JUMPDEST JUMPDEST PUSH1 0x0 PUSH1 0x1 DUP2 GT ISZERO PUSH2 0x5B2 JUMPI PUSH2 0x5B1 PUSH2 0xCA4 JUMP JUMPDEST JUMPDEST EQ SWAP1 POP PUSH1 0x0 PUSH32 0x0 PUSH1 0x2 SLOAD TIMESTAMP PUSH2 0x5E6 SWAP2 SWAP1 PUSH2 0xAEF JUMP JUMPDEST GT SWAP1 POP PUSH1 0x0 DUP1 SELFBALANCE GT SWAP1 POP PUSH1 0x0 DUP1 PUSH1 0x1 DUP1 SLOAD SWAP1 POP GT SWAP1 POP DUP3 DUP1 ISZERO PUSH2 0x606 JUMPI POP DUP4 JUMPDEST DUP1 ISZERO PUSH2 0x60F JUMPI POP DUP2 JUMPDEST DUP1 ISZERO PUSH2 0x618 JUMPI POP DUP1 JUMPDEST SWAP6 POP DUP6 PUSH1 0x40 MLOAD DUP1 PUSH1 0x40 ADD PUSH1 0x40 MSTORE DUP1 PUSH1 0x3 DUP2 MSTORE PUSH1 0x20 ADD PUSH32 0x3078300000000000000000000000000000000000000000000000000000000000 DUP2 MSTORE POP SWAP6 POP SWAP6 POP POP POP POP POP SWAP2 POP SWAP2 JUMP JUMPDEST PUSH1 0x1 DUP2 JUMP JUMPDEST PUSH32 0x0 DUP2 JUMP JUMPDEST PUSH1 0x3 SLOAD DUP2 JUMP JUMPDEST PUSH1 0x1 DUP2 DUP2 SLOAD DUP2 LT PUSH2 0x69D JUMPI PUSH1 0x0 DUP1 REVERT JUMPDEST SWAP1 PUSH1 0x0 MSTORE PUSH1 0x20 PUSH1 0x0 KECCAK256 ADD PUSH1 0x0 SWAP2 POP SLOAD SWAP1 PUSH2 0x100 EXP SWAP1 DIV PUSH20 0xFFFFFFFFFFFFFFFFFFFFFFFFFFFFFFFFFFFFFFFF AND DUP2 JUMP JUMPDEST PUSH32 0x0 DUP2 JUMP JUMPDEST PUSH1 0x0 DUP1 SLOAD SWAP1 PUSH2 0x100 EXP SWAP1 DIV PUSH1 0xFF AND DUP2 JUMP JUMPDEST PUSH1 0x4 PUSH1 0x8 SWAP1 SLOAD SWAP1 PUSH2 0x100 EXP SWAP1 DIV PUSH4 0xFFFFFFFF AND DUP2 JUMP JUMPDEST PUSH1 0x0 PUSH2 0x72A PUSH2 0x725 DUP5 PUSH2 0xAA2 JUMP JUMPDEST PUSH2 0xA7D JUMP JUMPDEST SWAP1 POP DUP3 DUP2 MSTORE PUSH1 0x20 DUP2 ADD DUP5 DUP5 DUP5 ADD GT ISZERO PUSH2 0x746 JUMPI PUSH2 0x745 PUSH2 0xD11 JUMP JUMPDEST JUMPDEST PUSH2 0x751 DUP5 DUP3 DUP6 PUSH2 0xC02 JUMP JUMPDEST POP SWAP4 SWAP3 POP POP POP JUMP JUMPDEST PUSH1 0x0 DUP1 DUP4 PUSH1 0x1F DUP5 ADD SLT PUSH2 0x76F JUMPI PUSH2 0x76E PUSH2 0xD07 JUMP JUMPDEST JUMPDEST DUP3 CALLDATALOAD SWAP1 POP PUSH8 0xFFFFFFFFFFFFFFFF DUP2 GT ISZERO PUSH2 0x78C JUMPI PUSH2 0x78B PUSH2 0xD02 JUMP JUMPDEST JUMPDEST PUSH1 0x20 DUP4 ADD SWAP2 POP DUP4 PUSH1 0x1 DUP3 MUL DUP4 ADD GT ISZERO PUSH2 0x7A8 JUMPI PUSH2 0x7A7 PUSH2 0xD0C JUMP JUMPDEST JUMPDEST SWAP3 POP SWAP3 SWAP1 POP JUMP JUMPDEST PUSH1 0x0 DUP3 PUSH1 0x1F DUP4 ADD SLT PUSH2 0x7C4 JUMPI PUSH2 0x7C3 PUSH2 0xD07 JUMP JUMPDEST JUMPDEST DUP2 CALLDATALOAD PUSH2 0x7D4 DUP5 DUP3 PUSH1 0x20 DUP7 ADD PUSH2 0x717 JUMP JUMPDEST SWAP2 POP POP SWAP3 SWAP2 POP POP JUMP JUMPDEST PUSH1 0x0 DUP2 CALLDATALOAD SWAP1 POP PUSH2 0x7EC DUP2 PUSH2 0xD45 JUMP JUMPDEST SWAP3 SWAP2 POP POP JUMP JUMPDEST PUSH1 0x0 DUP1 PUSH1 0x20 DUP4 DUP6 SUB SLT ISZERO PUSH2 0x809 JUMPI PUSH2 0x808 PUSH2 0xD1B JUMP JUMPDEST JUMPDEST PUSH1 0x0 DUP4 ADD CALLDATALOAD PUSH8 0xFFFFFFFFFFFFFFFF DUP2 GT ISZERO PUSH2 0x827 JUMPI PUSH2 0x826 PUSH2 0xD16 JUMP JUMPDEST JUMPDEST PUSH2 0x833 DUP6 DUP3 DUP7 ADD PUSH2 0x759 JUMP JUMPDEST SWAP3 POP SWAP3 POP POP SWAP3 POP SWAP3 SWAP1 POP JUMP JUMPDEST PUSH1 0x0 PUSH1 0x20 DUP3 DUP5 SUB SLT ISZERO PUSH2 0x855 JUMPI PUSH2 0x854 PUSH2 0xD1B JUMP JUMPDEST JUMPDEST PUSH1 0x0 DUP3 ADD CALLDATALOAD PUSH8 0xFFFFFFFFFFFFFFFF DUP2 GT ISZERO PUSH2 0x873 JUMPI PUSH2 0x872 PUSH2 0xD16 JUMP JUMPDEST JUMPDEST PUSH2 0x87F DUP5 DUP3 DUP6 ADD PUSH2 0x7AF JUMP JUMPDEST SWAP2 POP POP SWAP3 SWAP2 POP POP JUMP JUMPDEST PUSH1 0x0 PUSH1 0x20 DUP3 DUP5 SUB SLT ISZERO PUSH2 0x89E JUMPI PUSH2 0x89D PUSH2 0xD1B JUMP JUMPDEST JUMPDEST PUSH1 0x0 PUSH2 0x8AC DUP5 DUP3 DUP6 ADD PUSH2 0x7DD JUMP JUMPDEST SWAP2 POP POP SWAP3 SWAP2 POP POP JUMP JUMPDEST PUSH2 0x8BE DUP2 PUSH2 0xB23 JUMP JUMPDEST DUP3 MSTORE POP POP JUMP JUMPDEST PUSH2 0x8CD DUP2 PUSH2 0xB35 JUMP JUMPDEST DUP3 MSTORE POP POP JUMP JUMPDEST PUSH2 0x8DC DUP2 PUSH2 0xB41 JUMP JUMPDEST DUP3 MSTORE POP POP JUMP JUMPDEST PUSH1 0x0 PUSH2 0x8ED DUP3 PUSH2 0xAD3 JUMP JUMPDEST PUSH2 0x8F7 DUP2 DUP6 PUSH2 0xADE JUMP JUMPDEST SWAP4 POP PUSH2 0x907 DUP2 DUP6 PUSH1 0x20 DUP7 ADD PUSH2 0xC11 JUMP JUMPDEST PUSH2 0x910 DUP2 PUSH2 0xD20 JUMP JUMPDEST DUP5 ADD SWAP2 POP POP SWAP3 SWAP2 POP POP JUMP JUMPDEST PUSH2 0x924 DUP2 PUSH2 0xBBA JUMP JUMPDEST DUP3 MSTORE POP POP JUMP JUMPDEST PUSH2 0x933 DUP2 PUSH2 0xBCC JUMP JUMPDEST DUP3 MSTORE POP POP JUMP JUMPDEST PUSH2 0x942 DUP2 PUSH2 0xB5E JUMP JUMPDEST DUP3 MSTORE POP POP JUMP JUMPDEST PUSH2 0x951 DUP2 PUSH2 0xB8C JUMP JUMPDEST DUP3 MSTORE POP POP JUMP JUMPDEST PUSH2 0x960 DUP2 PUSH2 0xB96 JUMP JUMPDEST DUP3 MSTORE POP POP JUMP JUMPDEST PUSH2 0x96F DUP2 PUSH2 0xBA6 JUMP JUMPDEST DUP3 MSTORE POP POP JUMP JUMPDEST PUSH1 0x0 PUSH1 0x20 DUP3 ADD SWAP1 POP PUSH2 0x98A PUSH1 0x0 DUP4 ADD DUP5 PUSH2 0x8B5 JUMP JUMPDEST SWAP3 SWAP2 POP POP JUMP JUMPDEST PUSH1 0x0 PUSH1 0x40 DUP3 ADD SWAP1 POP PUSH2 0x9A5 PUSH1 0x0 DUP4 ADD DUP6 PUSH2 0x8C4 JUMP JUMPDEST DUP2 DUP2 SUB PUSH1 0x20 DUP4 ADD MSTORE PUSH2 0x9B7 DUP2 DUP5 PUSH2 0x8E2 JUMP JUMPDEST SWAP1 POP SWAP4 SWAP3 POP POP POP JUMP JUMPDEST PUSH1 0x0 PUSH1 0x20 DUP3 ADD SWAP1 POP PUSH2 0x9D5 PUSH1 0x0 DUP4 ADD DUP5 PUSH2 0x8D3 JUMP JUMPDEST SWAP3 SWAP2 POP POP JUMP JUMPDEST PUSH1 0x0 PUSH1 0x20 DUP3 ADD SWAP1 POP PUSH2 0x9F0 PUSH1 0x0 DUP4 ADD DUP5 PUSH2 0x91B JUMP JUMPDEST SWAP3 SWAP2 POP POP JUMP JUMPDEST PUSH1 0x0 PUSH1 0x20 DUP3 ADD SWAP1 POP PUSH2 0xA0B PUSH1 0x0 DUP4 ADD DUP5 PUSH2 0x92A JUMP JUMPDEST SWAP3 SWAP2 POP POP JUMP JUMPDEST PUSH1 0x0 PUSH1 0x20 DUP3 ADD SWAP1 POP PUSH2 0xA26 PUSH1 0x0 DUP4 ADD DUP5 PUSH2 0x939 JUMP JUMPDEST SWAP3 SWAP2 POP POP JUMP JUMPDEST PUSH1 0x0 PUSH1 0x20 DUP3 ADD SWAP1 POP PUSH2 0xA41 PUSH1 0x0 DUP4 ADD DUP5 PUSH2 0x948 JUMP JUMPDEST SWAP3 SWAP2 POP POP JUMP JUMPDEST PUSH1 0x0 PUSH1 0x20 DUP3 ADD SWAP1 POP PUSH2 0xA5C PUSH1 0x0 DUP4 ADD DUP5 PUSH2 0x957 JUMP JUMPDEST SWAP3 SWAP2 POP POP JUMP JUMPDEST PUSH1 0x0 PUSH1 0x20 DUP3 ADD SWAP1 POP PUSH2 0xA77 PUSH1 0x0 DUP4 ADD DUP5 PUSH2 0x966 JUMP JUMPDEST SWAP3 SWAP2 POP POP JUMP JUMPDEST PUSH1 0x0 PUSH2 0xA87 PUSH2 0xA98 JUMP JUMPDEST SWAP1 POP PUSH2 0xA93 DUP3 DUP3 PUSH2 0xC44 JUMP JUMPDEST SWAP2 SWAP1 POP JUMP JUMPDEST PUSH1 0x0 PUSH1 0x40 MLOAD SWAP1 POP SWAP1 JUMP JUMPDEST PUSH1 0x0 PUSH8 0xFFFFFFFFFFFFFFFF DUP3 GT ISZERO PUSH2 0xABD JUMPI PUSH2 0xABC PUSH2 0xCD3 JUMP JUMPDEST JUMPDEST PUSH2 0xAC6 DUP3 PUSH2 0xD20 JUMP JUMPDEST SWAP1 POP PUSH1 0x20 DUP2 ADD SWAP1 POP SWAP2 SWAP1 POP JUMP JUMPDEST PUSH1 0x0 DUP2 MLOAD SWAP1 POP SWAP2 SWAP1 POP JUMP JUMPDEST PUSH1 0x0 DUP3 DUP3 MSTORE PUSH1 0x20 DUP3 ADD SWAP1 POP SWAP3 SWAP2 POP POP JUMP JUMPDEST PUSH1 0x0 PUSH2 0xAFA DUP3 PUSH2 0xB8C JUMP JUMPDEST SWAP2 POP PUSH2 0xB05 DUP4 PUSH2 0xB8C JUMP JUMPDEST SWAP3 POP DUP3 DUP3 LT ISZERO PUSH2 0xB18 JUMPI PUSH2 0xB17 PUSH2 0xC75 JUMP JUMPDEST JUMPDEST DUP3 DUP3 SUB SWAP1 POP SWAP3 SWAP2 POP POP JUMP JUMPDEST PUSH1 0x0 PUSH2 0xB2E DUP3 PUSH2 0xB6C JUMP JUMPDEST SWAP1 POP SWAP2 SWAP1 POP JUMP JUMPDEST PUSH1 0x0 DUP2 ISZERO ISZERO SWAP1 POP SWAP2 SWAP1 POP JUMP JUMPDEST PUSH1 0x0 DUP2 SWAP1 POP SWAP2 SWAP1 POP JUMP JUMPDEST PUSH1 0x0 DUP2 SWAP1 POP PUSH2 0xB59 DUP3 PUSH2 0xD31 JUMP JUMPDEST SWAP2 SWAP1 POP JUMP JUMPDEST PUSH1 0x0 PUSH2 0xFFFF DUP3 AND SWAP1 POP SWAP2 SWAP1 POP JUMP JUMPDEST PUSH1 0x0 PUSH20 0xFFFFFFFFFFFFFFFFFFFFFFFFFFFFFFFFFFFFFFFF DUP3 AND SWAP1 POP SWAP2 SWAP1 POP JUMP JUMPDEST PUSH1 0x0 DUP2 SWAP1 POP SWAP2 SWAP1 POP JUMP JUMPDEST PUSH1 0x0 PUSH4 0xFFFFFFFF DUP3 AND SWAP1 POP SWAP2 SWAP1 POP JUMP JUMPDEST PUSH1 0x0 PUSH8 0xFFFFFFFFFFFFFFFF DUP3 AND SWAP1 POP SWAP2 SWAP1 POP JUMP JUMPDEST PUSH1 0x0 PUSH2 0xBC5 DUP3 PUSH2 0xBDE JUMP JUMPDEST SWAP1 POP SWAP2 SWAP1 POP JUMP JUMPDEST PUSH1 0x0 PUSH2 0xBD7 DUP3 PUSH2 0xB4B JUMP JUMPDEST SWAP1 POP SWAP2 SWAP1 POP JUMP JUMPDEST PUSH1 0x0 PUSH2 0xBE9 DUP3 PUSH2 0xBF0 JUMP JUMPDEST SWAP1 POP SWAP2 SWAP1 POP JUMP JUMPDEST PUSH1 0x0 PUSH2 0xBFB DUP3 PUSH2 0xB6C JUMP JUMPDEST SWAP1 POP SWAP2 SWAP1 POP JUMP JUMPDEST DUP3 DUP2 DUP4 CALLDATACOPY PUSH1 0x0 DUP4 DUP4 ADD MSTORE POP POP POP JUMP JUMPDEST PUSH1 0x0 JUMPDEST DUP4 DUP2 LT ISZERO PUSH2 0xC2F JUMPI DUP1 DUP3 ADD MLOAD DUP2 DUP5 ADD MSTORE PUSH1 0x20 DUP2 ADD SWAP1 POP PUSH2 0xC14 JUMP JUMPDEST DUP4 DUP2 GT ISZERO PUSH2 0xC3E JUMPI PUSH1 0x0 DUP5 DUP5 ADD MSTORE JUMPDEST POP POP POP POP JUMP JUMPDEST PUSH2 0xC4D DUP3 PUSH2 0xD20 JUMP JUMPDEST DUP2 ADD DUP2 DUP2 LT PUSH8 0xFFFFFFFFFFFFFFFF DUP3 GT OR ISZERO PUSH2 0xC6C JUMPI PUSH2 0xC6B PUSH2 0xCD3 JUMP JUMPDEST JUMPDEST DUP1 PUSH1 0x40 MSTORE POP POP POP JUMP JUMPDEST PUSH32 0x4E487B7100000000000000000000000000000000000000000000000000000000 PUSH1 0x0 MSTORE PUSH1 0x11 PUSH1 0x4 MSTORE PUSH1 0x24 PUSH1 0x0 REVERT JUMPDEST PUSH32 0x4E487B7100000000000000000000000000000000000000000000000000000000 PUSH1 0x0 MSTORE PUSH1 0x21 PUSH1 0x4 MSTORE PUSH1 0x24 PUSH1 0x0 REVERT JUMPDEST PUSH32 0x4E487B7100000000000000000000000000000000000000000000000000000000 PUSH1 0x0 MSTORE PUSH1 0x41 PUSH1 0x4 MSTORE PUSH1 0x24 PUSH1 0x0 REVERT JUMPDEST PUSH1 0x0 DUP1 REVERT JUMPDEST PUSH1 0x0 DUP1 REVERT JUMPDEST PUSH1 0x0 DUP1 REVERT JUMPDEST PUSH1 0x0 DUP1 REVERT JUMPDEST PUSH1 0x0 DUP1 REVERT JUMPDEST PUSH1 0x0 DUP1 REVERT JUMPDEST PUSH1 0x0 PUSH1 0x1F NOT PUSH1 0x1F DUP4 ADD AND SWAP1 POP SWAP2 SWAP1 POP JUMP JUMPDEST PUSH1 0x2 DUP2 LT PUSH2 0xD42 JUMPI PUSH2 0xD41 PUSH2 0xCA4 JUMP JUMPDEST JUMPDEST POP JUMP JUMPDEST PUSH2 0xD4E DUP2 PUSH2 0xB8C JUMP JUMPDEST DUP2 EQ PUSH2 0xD59 JUMPI PUSH1 0x0 DUP1 REVERT JUMPDEST POP JUMP INVALID LOG2 PUSH5 0x6970667358 0x22 SLT KECCAK256 SLOAD COINBASE 0xCD EXTCODECOPY PC SHL SDIV CREATE2 GT POP NUMBER ISZERO RETURNDATASIZE 0xEF COINBASE PUSH3 0x74B3EE MOD 0x1F PUSH32 0xD9D217D5C5CAC2765A3F64736F6C634300080700330000000000000000000000 "},"methodIdentifiers":{"NUM_WORDS()":"72cf6e34","REQUEST_CONFIRMATIONS()":"67f082b0","checkUpkeep(bytes)":"6e04ff0d","enterRaffle()":"2cfcc539","i_callbackGasLimit()":"d757d027","i_entranceFee()":"7ea3e6c1","i_gasLane()":"8e879c8a","i_interval()":"6919207d","i_subscriptionId()":"470cdf97","i_vrfCoordinator()":"aebc4550","performUpkeep(bytes)":"4585e33b","s_lastTimeStamp()":"34854043","s_players(uint256)":"ae771f6b","s_raffleState()":"cc45483f"}}}}}